:100000000C9434000C9451000C9451000C94510049
:100010000C9451000C9451000C9451000C9451001C
:100020000C9451000C9451000C9451000C9451000C
:100030000C9451000C94CD040C94AB080C9451001A
:100040000C9451000C9451000C944C050C945100EC
:100050000C9451000C9405050C9451000C94510023
:100060000C9451000C94510011241FBECFEFD8E026
:10007000DEBFCDBF12E0A0E0B1E0ECECF2E402C0E4
:1000800005900D92A436B107D9F717E0A4E6B2E0C7
:1000900001C01D92A331B107E1F70E9497050C94AE
:1000A00064210C940000EF92FF920F931F93DC01E8
:1000B0001596ED91FC911697E680F7808701045F15
:1000C0001F4FC8010E94080485E992E0B8010E9410
:1000D000B70320E0E0916402F0916502D7015696E3
:1000E0009C918689981708F021E0822F1F910F912B
:1000F000FF90EF900895FF920F931F93CF93DF939C
:1001000099E0F92E21C0F894E0919A02F0919B02B7
:1001100006811781C8010C960E9408047894E801B2
:100120002296CE010E940804F80196898091660209
:10013000891710F4909366029F9DC0011124835982
:100140009D4FBE010E94B703809195028823D9F686
:100150000E94E2122091670230916802821B930B89
:1001600090936A028093690289E0F82E53C0019649
:1001700090936C0280936B022150304030936A025E
:1001800020936902892B09F03EC0209191023091A1
:1001900092028091930290919402909392028093A4
:1001A000910230939402209393022DC00580F68132
:1001B000E02DC681D78120916B0230916C028A813B
:1001C0009B812817390730F1F8948E010E5F1F4F7D
:1001D000C8010E9408048C899D89892B21F0CE01D9
:1001E0000C960E94080478949E8980916602891773
:1001F00010F4909366029F9DC001112483599D4F76
:10020000B8010E94B703E0919102F09192028081BF
:10021000882361F62091690230916A0280916B0215
:1002200090916C022115310509F0A1CF90936802DD
:10023000809367029091660229E006C0992319F421
:100240001092660232C09150929FD0011124A3599E
:10025000BD4F8C91882391F3909366021196ED9196
:10026000FC9112970280F381E02D1296FC93EE939D
:100270001197CD010396E817F90731F48281938134
:1002800012969C938E9311971196ED91FC91129773
:100290000680F781E02DF0936502E09364022081EF
:1002A0003181CF016789F9010995DF91CF911F91C4
:1002B0000F91FF9008950F931F93CF93DF93EB015E
:1002C00000916B0210916C02080F191F809164025B
:1002D0009091650202960E940804E0916402F091F8
:1002E00065021383028380916B0290916C02BF01BF
:1002F0006E5F7F4F0817190728F480919302909141
:10030000940204C080919102909192020E94D603BF
:10031000209749F06091640270916502645F7F4F9D
:10032000CE010E94D603DF91CF911F910F910895C6
:10033000AF92BF92CF92DF92EF92FF920F931F93F3
:10034000CF93DF936C01B62EA42E8AE190E00E9439
:100350001709EC01009711F48FEF59C080916402E6
:1003600090916502892B21F5D0936502C0936402B8
:100370008DE692E00E94A30386E792E00E94A30329
:100380002FE7E22E22E0F22EC7010E94A30308E825
:1003900012E0C8010E94A30385E992E00E94A30332
:1003A000F0929202E09291021093940200939302D1
:1003B000EB2CBB2011F0EE24E394198E188EEE8AFC
:1003C000AF8AFE01C192D1928F01CF010E94B30387
:1003D000CE010C960E94B303D987C887DB8BCA8BEA
:1003E00082E090E08E1991099D878C879E8980918B
:1003F0006602891710F49093660289E0989FC00105
:10040000112483599D4FB8010E94B70381E0DF9109
:10041000CF911F910F91FF90EF90DF90CF90BF9001
:10042000AF900895FC010FB6F8940F9220813181AE
:100430006095709562237323718360830F900FBE64
:10044000C9010895FC01808191810895BA010E943B
:1004500012020895CF93DF93EC010E94DC1206C0D4
:100460008F81988560E072E00E948B148A818823D6
:10047000B9F7CE010E9407090E943016DF91CF9193
:100480000895CF92DF92EF92FF920F931F93CF9335
:10049000DF938B01EC0185E0E82EF12CEC0EFD1EC4
:1004A0000E94DC12EF81F88588819981802B912B45
:1004B0009983888300E010E024C0D280C3808081CB
:1004C0009181BC016070AC0150702881398192FD2E
:1004D00005C024233523232B31F40FC024233523D7
:1004E0002417350751F470FF02C0042B152B6881C7
:1004F00079817260CF010E948B148D2D9C2D9C01FF
:10050000F901EE15FF05C9F60095109588819981CE
:1005100080239123998388830E9430168881998152
:10052000DF91CF911F910F91FF90EF90DF90CF90CF
:100530000895BA010E9441020895AF92BF92CF92EE
:10054000DF92EF92FF920F931F93CF93DF937B0184
:10055000A42EB22E68018C010E94DC12F8012081C9
:100560003181C70182239323BB2021F4892B09F019
:100570005AC004C08E159F0509F455C0C114D1049A
:1005800059F4E9011BC0C7018095909582239323FC
:10059000F801918380834AC0AA2019F060E071E0DD
:1005A00002C060E070E0B11074606E297F29C8015C
:1005B0000296A6010E94DC17C0E0D0E00E9430162F
:1005C000CD2829F1882311F40E94AE080E948C13D3
:1005D00091FD1BC00FB6F8940F92F80180819181B4
:1005E000970128233923BB2019F4232B19F50BC0BD
:1005F0002E153F0541F41EC0E094F094E822F92244
:10060000F801F182E0820F900FBEEC01D070CE01B4
:10061000DF91CF911F910F91FF90EF90DF90CF90DE
:10062000BF90AF900895AA2009F0ADCFE901CC2486
:10063000DD24C4CFAA2001F7E6CF8F929F92AF921C
:10064000BF92CF92DF92EF92FF920F931F93CF93BF
:10065000DF93F82EE92E8B015A014901C82ED92EBD
:100660000E94DC12F601C081D1818F2D9E2DB80130
:100670000E944102C02BD12BC5018C239D238A15DA
:100680009B0569F4950120953095F6018081918153
:1006900082239323918380838824992410C081141A
:1006A000910451F0B5017560C6010296A4010E9443
:1006B000DC17C0E0D0E003C0F601C081D1810E9408
:1006C00030168928F9F0882311F40E94AE080E94A0
:1006D0008C139C0191FD14C00FB6F8940F92F60193
:1006E00020813181C501822393238A159B0531F432
:1006F000A094B094A222B322B182A0820F900FBE28
:10070000E901D070CE01DF91CF911F910F91FF9041
:10071000EF90DF90CF90BF90AF909F908F90089513
:10072000CF93DF938BE090E00E941709EC010097D4
:1007300031F0FC0111921192CF010E94A303CE016E
:10074000DF91CF910895FC019C012D5F3F4F3283D3
:1007500021838FEF9FEF94838383368325833087B4
:10076000278310820895FC01118610860895AC013C
:10077000FC01A181B281FB01B383A28314968D9108
:100780009C911597958384831496ED91FC91159710
:100790007383628315967C936E931497FB01518744
:1007A0004087FA0180818F5F80830895CF93DF9324
:1007B0009C01EB01488159818FEF4F3F580721F48D
:1007C000F901A781B0850DC0D90113961296ED915C
:1007D000FC911397808191814817590710F0DF0130
:1007E000F5CF1296ED91FC911397FB83EA83D583A5
:1007F000C483BD83AC831396DC93CE931297398761
:100800002887F90180818F5F8083DF91CF910895E0
:10081000CF93DF93DC011896CD91DC911997129656
:100820004D915C91139714968D919C911597FA01B7
:100830009583848314962D913C911597F9015383E8
:10084000428389819A818A179B0711F43A8329830D
:1008500019961C921E9218978881815088838881EE
:10086000DF91CF9108951F93162F9C0140E050E037
:1008700060E472E48FE090E00E94D3202150304089
:100880003093C5002093C400179511271795186160
:100890001093C1008EE08093C2001F91089580E103
:1008A0008093C40088E98093C1008EE08093C200E9
:1008B0000895982F8091C00085FFFCCF9093C600CB
:1008C0000895FC0107C08091C00085FFFCCF909384
:1008D000C600319690819923B1F708959C01FB01E0
:1008E0000DC0C9016AE070E00E94C020805D819364
:1008F000C9016AE070E00E94C0209B01211531050A
:1009000081F710820895FC0120E030E013C0C90196
:1009100063E0880F991F6A95E1F7220F331F820F5A
:10092000931F242F332727FD309520533040280F65
:10093000391F31964081442351F7C9010895CF935F
:10094000DF93EC018881882359F0CE0101960E9443
:100950009F0498818091C00085FFFCCF9093C600D2
:10096000DF91CF9108958091C00087FFFCCF8091E7
:10097000C6000895FC0107C08091C00087FFFCCF2E
:100980008091C6008193829131968A30A9F71082B6
:1009900008958091C000807808951F920F920FB63D
:1009A0000F9211242F933F934F935F936F937F93F5
:1009B0008F939F93AF93BF93EF93FF9380E091E06A
:1009C0000E9461048091050790E068E077E00E9452
:1009D0006E0488E097E00E949F048091C00085FF2C
:1009E000FCCF8AE08093C600FF91EF91BF91AF9159
:1009F0009F918F917F916F915F914F913F912F9137
:100A00000F900FBE0F901F9018951F920F920FB668
:100A10000F9211242F933F934F935F936F937F9384
:100A20008F939F93AF93BF93EF93FF938091790040
:100A300080930507809111079091120760E070E0A4
:100A400040E050E020E00E94790D88E091E00E94B3
:100A500061048091050790E068E077E00E946E04F1
:100A600088E097E00E949F048091C00085FFFCCF42
:100A70008AE08093C600FF91EF91BF91AF919F9163
:100A80008F917F916F915F914F913F912F910F9037
:100A90000FBE0F901F9018951F920F920FB60F92D6
:100AA00011242F933F934F935F936F937F938F9373
:100AB0009F93AF93BF93EF93FF9390919E0280918A
:100AC000C00087FFFCCF8091C600E92FF0E0E45F13
:100AD000F84F8083E92FEF5FE0939E028A30B1F4F4
:100AE000F0E0E55FF84F108280919F028160809373
:100AF0009F0210929E02809106079091070760E086
:100B000070E040E050E020E00E94790DFF91EF910D
:100B1000BF91AF919F918F917F916F915F914F9115
:100B20003F912F910F900FBE0F901F901895EF924D
:100B3000FF920F9381E060E043E00E94660E909385
:100B4000070780930607009739F060E070E040E007
:100B500050E020E00E94790D81E060E043E00E94D7
:100B6000660E9093120780931107009739F060E0AA
:100B700070E040E050E020E00E94790D80E1809339
:100B8000C40088E98093C1008EE08093C20081E0B8
:100B900080936F0080EB8093800085E180938100DB
:100BA0008FE2809387008FEF809386009FE1909380
:100BB00089008093880090938B0080938A00109224
:100BC0007E0081E680937C0088EE80937A0086E048
:100BD00080937B0084B9789482EA96E061E171E0C9
:100BE00040E850E020E030E003E0EE24FF240E94E3
:100BF000EC188EE296E063E171E040E850E020E01E
:100C000030E002E00E94EC1882E196E065E171E0DC
:100C100040E850E020E030E001E00E94EC180E9443
:100C2000E519FFCF0F931F93DF93CF9300D0CDB77C
:100C3000DEB7259A0E94E2129A8389838E010F5FA4
:100C40001F4F2D9AC80168EE73E00E9408182D9876
:100C5000C80168EE73E00E940818F3CFFF920F936B
:100C60001F93DF93CF93CDB7DEB763970FB6F8949A
:100C7000DEBF0FBECDBFDE011196EBE2F1E083E1F6
:100C800001900D928150E1F78E010F5F1F4FB2E08E
:100C9000FB2E80910607909107076FEF7FEF0E9470
:100CA0002F0C80919F02813091F5C8010E94610450
:100CB000ECE0F7E020E030E013C0C901A3E0880FCA
:100CC000991FAA95E1F7220F331F820F931F242F3C
:100CD000332727FD309520533040280F391F319698
:100CE0004081442351F72093A0021092A102822F49
:100CF00090E068E077E00E946E0488E097E00E9450
:100D00009F0487E191E00E946104F0929F0280912C
:100D10009F02833009F0BDCF80910C07893759F4C9
:100D20008091A0029091A1029093A3028093A202CD
:100D300081E291E002C086E291E00E94610410929B
:100D40009F02A7CF2F923F925F926F927F928F92D6
:100D50009F92AF92BF92CF92DF92EF92FF920F934A
:100D60001F93CF93DF939AE0592E8FEF282E8FE2B7
:100D7000382E80911107909112076FEF7FEF0E943C
:100D80002F0C209105076091A2027091A302621BB3
:100D90007109882777FD8095982F0E94191E3B01C5
:100DA0004C010E940D1ADC01CB0168E077E00E9443
:100DB0006E048EE391E00E94610488E097E00E9457
:100DC0009F048091C00085FFFCCF5092C600C401F3
:100DD000B301A60195010E94B61B20E030E04AEF66
:100DE00054E40E94DD1C9B01AC01C801B7010E94C4
:100DF000B61B7B018C0120E030E040E050E00E9417
:100E0000E91D88235CF40F2EF0E0EF2EF0E0FF2EBA
:100E1000F0E00F2FF0E01F2FF02D14C0C801B70134
:100E200023E333E343EB5EE30E94891D181654F479
:100E30000F2EF3E3EF2EF3E3FF2EF3EB0F2FFEE382
:100E40001F2FF02DC801B70120E03CEF4FE356E41F
:100E50000E94E31B0E94771EEB016101C61AD70AAC
:100E6000C801B7010E940D1ADC01CB0168E077E0F0
:100E70000E946E0481E491E00E94610488E097E0A2
:100E80000E949F048091C00085FFFCCF5092C60055
:100E9000CE0168E077E00E946E0484E491E00E9455
:100EA000610488E097E00E949F048091C00085FF64
:100EB000FCCF5092C600C60168E077E00E946E0445
:100EC00087E491E00E94610488E097E00E949F041B
:100ED0008091C00085FFFCCF5092C600D09389005E
:100EE000C0938800D0928B00C0928A0080918900C4
:100EF00090E068E077E00E946E048AE491E00E944E
:100F0000610488E097E00E949F048091C00085FF03
:100F1000FCCF5092C6008091880090E068E077E0B6
:100F20000E946E048DE491E00E94610488E097E0E5
:100F30000E949F048091C00085FFFCCF5092C600A4
:100F400080918B0090E068E077E00E946E0480E57D
:100F500091E00E94610488E097E00E949F048091E4
:100F6000C00085FFFCCF5092C60080918A0090E0BF
:100F700068E077E00E946E0483E591E00E946104DE
:100F800088E097E00E949F048091C00085FFFCCF1D
:100F90005092C60064015301ECCEFC0191E19083B4
:100FA00022E2229383E3829362937293129280E807
:100FB0008293129282E0829383E0829384E0829310
:100FC00085E0829386E0829387E0829388E0829333
:100FD00089E0829380E18293929382E1829383E11C
:100FE000829384E1829385E1829386E1829387E113
:100FF000829388E1829389E1829380E2829381E205
:101000008293229383E282934293529386E2829365
:1010100087E2829388E2829389E2829380E38293DB
:1010200081E382933197CF01089589EF87BD82E0F4
:1010300084BD83E085BDEEE6F0E080818260808340
:10104000A091A806B091A906CD91CDBFDD91DEBFDC
:10105000FF91EF91DF91CF91BF91AF919F918F91D0
:101060007F916F915F914F913F912F911F910F91C0
:10107000FF90EF90DF90CF90BF90AF909F908F90B8
:101080007F906F905F904F903F902F901F900F90A8
:101090000FBE0F90089581E0089508950F920FB646
:1010A000F8940F921F9211242F923F924F925F92C9
:1010B0006F927F928F929F92AF92BF92CF92DF9268
:1010C000EF92FF920F931F932F933F934F935F9352
:1010D0006F937F938F939F93AF93BF93CF93DF9340
:1010E000EF93FF93A091A806B091A9060DB60D92BB
:1010F0000EB60D920E94FD14882311F00E94011378
:10110000A091A806B091A906CD91CDBFDD91DEBF1B
:10111000FF91EF91DF91CF91BF91AF919F918F910F
:101120007F916F915F914F913F912F911F910F91FF
:10113000FF90EF90DF90CF90BF90AF909F908F90F7
:101140007F906F905F904F903F902F901F900F90E7
:101150000FBE0F9008950E944E0818950F920FB67B
:10116000F8940F921F9211242F923F924F925F9208
:101170006F927F928F929F92AF92BF92CF92DF92A7
:10118000EF92FF920F931F932F933F934F935F9391
:101190006F937F938F939F93AF93BF93CF93DF937F
:1011A000EF93FF93A091A806B091A9060DB60D92FA
:1011B0000EB60D920E940113A091A806B091A90647
:1011C000CD91CDBFDD91DEBFFF91EF91DF91CF914A
:1011D000BF91AF919F918F917F916F915F914F914F
:1011E0003F912F911F910F91FF90EF90DF90CF9043
:1011F000BF90AF909F908F907F906F905F904F9037
:101200003F902F901F900F900FBE0F90089508955C
:101210001092A5021092A40208952FEF33E080915E
:10122000A4029091A502281B390BC9010895CF9300
:10123000DF93EC010E94DC128091A6029091A7023C
:10124000892B31F489EA92E09093A7028093A60259
:101250002091A4023091A502CE01820F931F43E09A
:101260008F3F940770F42817390758F4C091A602ED
:10127000D091A702C20FD31F9093A5028093A4021E
:1012800002C0C0E0D0E00E943016CE01DF91CF91C5
:1012900008950FB6F8940F92FC01828D0F900FBE47
:1012A0000895FC010FB6F8940F92928D0F900FBE27
:1012B000838D891B0895FC01828D0895FC01828D28
:1012C00090E0882309F491E0892F0895FC01928D24
:1012D00020E0838D981709F421E0822F08950F9361
:1012E0001F93CF93DF93EC01042F1A8D4C8D442371
:1012F000C1F10023B1F48C819D8150E00E945B21FB
:101300008C8D2C813D81280F311D3D832C838A815A
:101310009B812817390728F1888199819D838C83C7
:1013200020C08E819F8150E00E945B218C8D90E0D7
:1013300044275527481B590B8E819F81840F951F89
:101340009F838E83288139818217930730F48A81A5
:101350009B81840F951F9F838E83023011F411119E
:1013600011501F5F1A8F80E0DF91CF911F910F9175
:101370000895FC01562FA72F248D2223B9F08681D2
:101380009781820F911D97838683228133818217F3
:10139000930720F08081918197838683448D6681B5
:1013A0007781852F9A2F50E00E945B2108950F933B
:1013B0001F93CF93DF93EC018A8D882341F00E8138
:1013C0001F81CE010E94B9091F830E8381E0DF9146
:1013D000CF911F910F9108950F931F93CF93DF9398
:1013E000FB018A01EC018A8D882361F18C8D2E81AD
:1013F0003F81280F311D3F832E838A819B812817CF
:10140000390720F0888199819F838E838A8D81504E
:101410008A8F4C8D6E817F81CF0150E00E945B21CD
:10142000F8018081882369F48885882351F0CE01F2
:1014300008960E945300882321F081E0F801808300
:1014400001C081E0DF91CF911F910F9108951F930B
:10145000CF93DF93142FEC019A8D8B8D981788F41E
:10146000CE0140E00E946F09112359F48989882335
:1014700041F0CE0141960E945300482F811141E076
:10148000142F812FDF91CF911F910895CF93DF9378
:10149000FB01EC01F8948A8D882371F44115510504
:1014A00041F06196CA01BE010E945B0178948CEF05
:1014B0002FC0789480E02CC07894F8948A8D88238B
:1014C00031F18C8D2E813F81280F311D3F832E837A
:1014D0008A819B812817390720F0888199819F8311
:1014E0008E838A8D81508A8F4C8D6E817F81CF0152
:1014F00050E00E945B218885882341F0CE01089648
:101500000E945300882311F08BEF01C081E0789492
:10151000DF91CF910895CF93DF93EC01F8940FB64C
:10152000F8940F928A8D9B8D0F900FBE891771F4DE
:101530004115510541F02896CA01BE010E945B0188
:1015400078948CEF1BC0789480E018C07894F8945D
:101550008A8D891710F080E010C0CE0140E00E9413
:101560006F098989882341F0CE0141960E9453007A
:10157000882311F08BEF01C081E07894DF91CF9147
:1015800008950E9407090895EF92FF920F931F9309
:10159000CF93DF937A01EC011A8D112311F480E0CF
:1015A0001AC00D8D0E94B90911501A8F0F3F81F496
:1015B0008885882379F0CE0108960E94BD1488237F
:1015C00049F0E114F10431F081E0F701808303C0B8
:1015D0000F5F0D8F81E0DF91CF911F910F91FF90F1
:1015E000EF900895CF93DF93EB01FC01928D838DF3
:1015F000981710F080E016C0868D9F5F928F8F3F06
:1016000071F48189882369F0CF0141960E94BD144D
:10161000882339F0209729F081E0888303C08F5F09
:10162000868F81E0DF91CF910895EF92FF921F9313
:10163000CF93DF937A01EC019A8D8B8D981720F070
:10164000223011F080E01AC01E8DCE01422F0E9480
:101650006F091F3F81F48989882379F0CE01419673
:101660000E94BD14882349F0E114F10431F081E0B7
:10167000F701808303C01F5F1E8F81E0DF91CF9150
:101680001F91FF90EF900895EF92FF921F93CF93D9
:10169000DF93EC010FB6F8940F921E8D91E1E92EC5
:1016A000F12CEC0EFD1E0BC08989882351F0C70177
:1016B0000E94BD14882311F00E9488131150111646
:1016C0009CF38FEF8E8F0F900FBE0FB6F8940F9292
:1016D0001D8D88E0E82EF12CEC0EFD1E0BC08885D8
:1016E000882351F0C7010E94BD14882311F00E9485
:1016F0008813115011169CF38FEF8D8F0F900FBE32
:10170000DF91CF911F91FF90EF9008958F929F925C
:10171000AF92BF92CF92DF92EF92FF920F931F93FF
:10172000DF93CF9300D000D00F92CDB7DEB75B012F
:101730005D834C837C0141E1C42ED12CC80ED91E9F
:1017400020E08E010F5F1F4F34E0832E912C8C0E12
:101750009D1E01C021E00FB6F8940F92F701828D13
:101760008823B9F006811781C701B5010E94B90924
:10177000F701178306838189882339F0C6010E9407
:10178000BD14882311F00E94AE080F900FBE81E0B7
:1017900054C08C819D81892B21F40F900FBE80E075
:1017A0004CC0222319F4C8010E944B130F900FBEA6
:1017B0000E94DC120FB6F8940F92F701858D8F3FCF
:1017C00009F4158EF701868D8F3F09F4168E0F9060
:1017D0000FBEC801B4010E9456138823F9F40FB656
:1017E000F8940F92F701828D0F900FBE882381F439
:1017F0006C817D81C6010E943718C7010E94440B8D
:101800000E943016882309F0A5CF0E94AE08A2CF0F
:10181000C7010E94440B0E9430169CCFC7010E9452
:10182000440B0E9430160FB6F8940F92F701828D88
:101830000F900FBE882309F08DCF0F900F900F905F
:101840000F900F90CF91DF911F910F91FF90EF902C
:10185000DF90CF90BF90AF909F908F900895AF9200
:10186000BF92CF92DF92EF92FF920F931F93DF937D
:10187000CF9300D000D00F92CDB7DEB77D836C83BD
:101880008C0161E1E62EF12CE80EF91E20E06E01DC
:101890000894C11CD11C54E0A52EB12CAC0EBD1E69
:1018A00001C021E00FB6F8940F92F801828D8823D1
:1018B00089F08150828F8085882341F0C801089685
:1018C0000E94BD14882311F00E94AE080F900FBE35
:1018D00081E054C08C819D81892B21F40F900FBE33
:1018E00080E04CC0222319F4C6010E944B130F90D4
:1018F0000FBE0E94DC120FB6F8940F92F801858D8E
:101900008F3F09F4158EF801868D8F3F09F4168EEE
:101910000F900FBEC601B5010E9456138823F9F43B
:101920000FB6F8940F92F801828D0F900FBE8823A6
:1019300081F46C817D81C7010E943718C8010E9423
:10194000440B0E943016882309F0ABCF0E94AE08EA
:10195000A8CFC8010E94440B0E943016A2CFC80134
:101960000E94440B0E9430160FB6F8940F92F801B3
:10197000828D0F900FBE882309F093CF0F900F90A8
:101980000F900F900F90CF91DF911F910F91FF90CB
:10199000EF90DF90CF90BF90AF9008956F927F92BD
:1019A0008F929F92AF92BF92CF92DF92FF920F934E
:1019B0001F93DF93CF9300D000D00F92CDB7DEB747
:1019C0005B015D834C838C01E1E1CE2ED12CC80EEE
:1019D000D91E20E04E010894811C911C74E0672EF2
:1019E000712C6C0E7D1E01C021E00FB6F8940F9291
:1019F000F801F28CFF20B1F0C801B5010E94B909CD
:101A0000FA94F801F28E8085882341F0C801089687
:101A10000E94BD14882311F00E94AE080F900FBEE3
:101A200081E054C08C819D81892B21F40F900FBEE1
:101A300080E04CC0222319F4C4010E944B130F9084
:101A40000FBE0E94DC120FB6F8940F92F801858D3C
:101A50008F3F09F4158EF801868D8F3F09F4168E9D
:101A60000F900FBEC401B3010E9456138823F9F4EE
:101A70000FB6F8940F92F801828D0F900FBE882355
:101A800081F46C817D81C6010E943718C8010E94D3
:101A9000440B0E943016882309F0A6CF0E94AE089E
:101AA000A3CFC8010E94440B0E9430169DCFC801ED
:101AB0000E94440B0E9430160FB6F8940F92F80162
:101AC000828D0F900FBE882309F08ECF0F900F905C
:101AD0000F900F900F90CF91DF911F910F91FF907A
:101AE000DF90CF90BF90AF909F908F907F906F903E
:101AF00008956F927F929F92AF92BF92CF92DF92A2
:101B0000EF92FF920F931F93DF93CF9300D000D0FB
:101B10000F92CDB7DEB76B015D834C83922E8C01A3
:101B2000A8E0EA2EF12CE80EF91E20E05E010894F0
:101B3000A11CB11CF4E06F2E712C6C0E7D1E01C037
:101B400021E00FB6F8940F92F801928D838D9817CB
:101B500018F0F2E09F16C9F4C801B601492D0E94A1
:101B60006F09982FF8018189882339F0C8014196BF
:101B70000E94BD14882329F002C0992311F00E940D
:101B8000AE080F900FBE81E04CC08C819D81892BE7
:101B900019F40F900FBE44C0222319F4C5010E940E
:101BA0004B130F900FBE0E94DC120FB6F8940F92E9
:101BB000F801858D8F3F09F4158EF801868D8F3FD2
:101BC00009F4168E0F900FBEC501B3010E94561383
:101BD000882309F50FB6F8940F92F801928D0F90B3
:101BE0000FBEF801838D981781F46C817D81C70148
:101BF0000E943718C8010E94440B0E9430168823A7
:101C000009F09ECF0E94AE089BCFC8010E94440BF2
:101C10000E94301695CFC8010E94440B0E943016D6
:101C200080E00F900F900F900F900F90CF91DF9169
:101C30001F910F91FF90EF90DF90CF90BF90AF90EA
:101C40009F907F906F900895CF93DF93EC010FB634
:101C5000F8940F92EC8D2B8DE29FC00111244881E6
:101C60005981840F951F9B838A831A8E5D834C83D1
:101C700030E021503040F0E02E9FC0012F9F900DAA
:101C80003E9F900D1124480F591F5F834E838FEFA5
:101C90008D8F8E8F662361F48885882389F0CE012D
:101CA00008960E94BD14882359F00E94AE0808C00F
:101CB000CE0108960E94A303CE0141960E94A30381
:101CC0000F900FBE81E0DF91CF9108950F931F9386
:101CD000CF93DF93082F162F662319F480E090E04E
:101CE00003C0689FC00111244F960E941709EC01A0
:101CF000009771F0112319F49983888303C04F96DC
:101D0000998388830B8F1C8FCE0161E00E94240E83
:101D1000CE01DF91CF911F910F910895FC016115C4
:101D2000710511F461E070E0848195818617970751
:101D300010F480E008957783668381E00895FC01C4
:101D4000448155812081318182819381240F351F07
:101D500021503040281B390B2417350710F0241B65
:101D6000350BC9010895FC014481558122813381DD
:101D700080819181240F351F281B390B24173507CB
:101D800010F0241B350BC9010895FC01208131811D
:101D90008281938140E08217930709F441E0842F08
:101DA0000895FC01868580FD03C060E070E002C0FC
:101DB00062E070E04481558120813181828193818C
:101DC000240F351F21503040281B390B24173507AD
:101DD00010F0241B350B80E06217730708F081E0D8
:101DE0000895EF92FF920F931F93CF93DF937B01A0
:101DF000EC018A859B85892B11F480E00FC08A85D0
:101E00009B8540E050E060E070E020E030E000E0E2
:101E100010E00E940A141B861A8681E0DF91CF91A0
:101E20001F910F91FF90EF900895EF92FF920F9303
:101E30001F93CF93DF937B01EC0188859985892BD4
:101E400011F480E00FC08885998540E050E060E0A3
:101E500070E020E030E000E010E00E940A141986F3
:101E6000188681E0DF91CF911F910F91FF90EF9045
:101E70000895AF92BF92CF92DF92EF92FF920F93AD
:101E80001F93CF93DF937C015B01BA018901621735
:101E9000730708F48B0101151105D9F1D701CD9015
:101EA000DC90119714968D919C9115978C199D0932
:101EB000E8018017910708F4EC01F70124853585C6
:101EC0002C0D3D1DC501B901AE010E945B21C0175B
:101ED000D10780F495012C0F3D1FF801EC1BFD0B81
:101EE000D7011C966C911C971D967C91C901AF017E
:101EF0000E945B21C8018C0D9D1DF7012481358155
:101F00008217930710F0821B930BD70111969C93B5
:101F10008E93C801DF91CF911F910F91FF90EF90A9
:101F2000DF90CF90BF90AF9008956F927F928F9285
:101F30009F92AF92BF92CF92DF92EF92FF920F9358
:101F40001F93DF93CF9300D0CDB7DEB77C013B0169
:101F50005A01690101151105B1F0FC0180809180E1
:101F6000BE016F5F7F4FA8010E94390FC01AD10ACE
:101F700089819A81A816B90640F4F701918280827E
:101F80001A82198202C05A83498349815A81C70142
:101F9000B30196010E94390F0F900F90CF91DF91FE
:101FA0001F910F91FF90EF90DF90CF90BF90AF9077
:101FB0009F908F907F906F900895CF92DF92EF92D5
:101FC000FF920F931F93CF93DF937901EC018E85DE
:101FD00080FD03C000E010E002C002E010E0EC81F0
:101FE000FD812A813B81888199812E0F3F1F281B0B
:101FF000390B2E173F0710F02E1B3F0B021713074C
:1020000018F0CC24DD2418C0CE010E94950F6C017D
:10201000009791F08A859B85892B71F08A859B8535
:1020200040E050E060E070E020E030E000E010E0F0
:102030000E940A141B861A86C601DF91CF911F9158
:102040000F91FF90EF90DF90CF900895AF92BF92E5
:10205000CF92DF92EF92FF920F931F93CF93DF9374
:102060008C016B017A01DC011296AD90BC90139744
:1020700014968D919C9115978A199B09EA018417F2
:10208000950708F4EC01F801248535852A0D3B1DE0
:10209000C901B601AE010E945B21CE15DF0580F4B7
:1020A000F701EC1BFD0B96012C0F3D1FD8011C9670
:1020B0008C911C971D969C91B901AF010E945B21E8
:1020C000C7018A0D9B1DF801248135818217930772
:1020D00010F0821B930BD80113969C938E9312974A
:1020E000C701DF91CF911F910F91FF90EF90DF908B
:1020F000CF90BF90AF900895CF92DF92EF92FF9272
:102100000F931F93DF93CF9300D0CDB7DEB77C0141
:102110006B015A83498321153105B9F0FC0186858D
:1021200080FD07C04217530708F49A013A832983B8
:102130001AC02017310748F0C701BE016F5F7F4FFB
:1021400042E050E00E9426100EC020E030E0C901BD
:102150000F900F90CF91DF911F910F91FF90EF9013
:10216000DF90CF90089549815A81C701B6010E943E
:1021700026109C01ECCFCF92DF92EF92FF920F934B
:102180001F93CF93DF937901EC018E8580FD02C010
:102190008A0103C08A010E5F1F4FEC81FD812881F7
:1021A00039818A819B812E0F3F1F21503040281B8F
:1021B000390B2E173F0710F02E1B3F0BCE010E944C
:1021C0007C106C01009731F14C815D812A813B814B
:1021D00088819981240F351F281B390B2417350757
:1021E00010F0241B350B8E819F812817390790F042
:1021F00088859985892B71F08885998540E050E024
:1022000060E070E020E030E000E010E00E940A149E
:1022100019861886C601DF91CF911F910F91FF900B
:10222000EF90DF90CF9008958F929F92AF92BF92E0
:10223000CF92DF92EF92FF920F931F93CF93DF9392
:102240005B014A017901EC018E8580FD03C0CC243D
:10225000DD2403C082E0C82ED12C2C813D81E11405
:10226000F10481F10FB6F8940F920A811B818881E5
:102270009981020F131F081B190B0217130710F087
:10228000021B130BC016D10640F080E090E00E94C4
:10229000A41382E090E0998788870F900FBEC01644
:1022A000D10618F160E070E080E090E02FEF3FEFA2
:1022B0004FEF5FEF00E010E00E94FD1619861886D0
:1022C0002C813D810A811B8188819981020F131F16
:1022D000081B190B0217130710F0021B130BC01673
:1022E000D10618F0EE24FF2420C0CE01B501A401D0
:1022F000980186010E94950F7C010097B1F00E9421
:10230000DC128A859B85892B71F08A859B8540E04C
:1023100050E060E070E020E030E000E010E00E947B
:10232000C1151B861A860E943016C701DF91CF9116
:102330001F910F91FF90EF90DF90CF90BF90AF90E3
:102340009F908F9008952F923F924F925F926F923D
:102350007F928F929F92AF92BF92CF92DF92EF9235
:10236000FF920F931F93DF93CF9300D000D00F9273
:10237000CDB7DEB71B013A013D832C835C01FC0124
:10238000868580FD02C04A0105C092E0892E912C0D
:10239000840E951E8C819D81892B09F44BC08E0182
:1023A0000F5F1F4FC8010E943B1328010FB6F8941E
:1023B0000F92F50124813581C080D1808281938183
:1023C000C20ED31E0894C108D108C81AD90AC21671
:1023D000D30610F0C21AD30AC814D90430F580E02D
:1023E00090E00E94A41382E090E0F5019387828739
:1023F0000F900FBEEC80FD8060E070E080E090E028
:102400002FEF3FEF4FEF5FEF00E010E00E94FD166F
:10241000F50113861286C201BE016C5F7F4F0E94D8
:102420005613882309F4C2CF02C00F900FBE960145
:10243000CD2891F4F501448155812081318182813B
:102440009381240F351F21503040281B390B24174E
:10245000350710F0241B350BC501B101A301840120
:102460000E947C107C01009771F1F5014481558137
:102470002281338180819181240F351F281B390BE4
:102480002417350710F0241B350BF5018681978141
:1024900028173907C0F00E94DC12F501808591856C
:1024A000892B79F08085918540E050E060E070E014
:1024B00020E030E000E010E00E94C115F501118637
:1024C00010860E943016C7010F900F900F900F904A
:1024D0000F90CF91DF911F910F91FF90EF90DF90C0
:1024E000CF90BF90AF909F908F907F906F905F90B4
:1024F0004F903F902F900895FC0180859185892B06
:10250000E9F482859385892BC9F4968524853585E0
:1025100044815581668177818FE0DF011D928A9524
:10252000E9F735872487558344837783668390FF53
:1025300003C086858160868781E0089580E00895E4
:10254000FC01868581FD04C0CF010E940709089522
:102550008FE0DF011D928A95E9F70895FF920F93AE
:102560001F93CF93DF93EB01F42E6115710511F4E6
:10257000C1E0D0E08C010F5F1F4F40960E94170909
:10258000FC01009791F08FE0DF011D928A95E9F739
:10259000CF010F969587848715830483D783C683DD
:1025A000FF2019F0868581608687CF01DF91CF916A
:1025B0001F910F91FF9008958091AA068F5F8093DD
:1025C000AA0608950FB6F8940F922091AD063091A7
:1025D000AE060F900FBEC90108952091AD0630914F
:1025E000AE06C90108958091B3060895009721F4BD
:1025F0008091A8069091A9069C01275E3F4FC901D2
:1026000008958091AA06882321F081E08093AC068A
:1026100008951092AC062091AB0699E001C02150BC
:10262000299FD0011124A754B94F8C918823B9F365
:102630001196ED91FC9112970280F381E02D129694
:10264000FC93EE931197CD010396E817F90731F447
:102650008281938112969C938E9311971196ED919E
:10266000FC911297868197819093A9068093A80682
:102670002093AB060895FC010FB6F8940F92809159
:10268000B10680838091AD069091AE0692838183DE
:102690000F900FBE0895FC018091B1068083809158
:1026A000AD069091AE06928381830895FC01DB0113
:1026B0000FB6F8940F924091AD065091AE0621816D
:1026C00032819091B1068081981719F04217530713
:1026D000D8F4CA01821B930B9C018D919C91119798
:1026E0002817390778F4821B930B8D939C93809164
:1026F000B10680838091AD069091AE06928381836E
:1027000080E003C01D921C9281E00F900FBE0895DF
:1027100081E08093AC060895E091A806F091A906A7
:1027200084859585A091A806B091A906E091A80698
:10273000F091A906468924E030E0241B31091D965A
:102740003C932E931C970895009729F4E091A806D6
:10275000F091A90601C0FC010FB6F8940F9285A173
:10276000823011F080E002C015A281E00F900FBE10
:102770000895EF92FF920F931F93CF93DF937B0106
:10278000EC012DA182E08DA389A19AA1ABA1BCA1EE
:102790000196A11DB11D89A39AA3ABA3BCA32130AF
:1027A00091F58091AA068823A9F48E010E5F1F4F30
:1027B000C8010E9408049E898091AB06891710F415
:1027C0009093AB0689E0989FC00111248754994FDC
:1027D000B80105C0BE01645F7F4F83EF96E00E94A1
:1027E000B703E091A806F091A9069E89868989170A
:1027F00050F4E114F10421F081E0F701808303C07B
:1028000081E08093AC06DF91CF911F910F91FF90F3
:10281000EF900895EF92FF920F931F93CF93DF9362
:10282000F801EC010115110541F089A19AA1ABA1B4
:10283000BCA180839183A283B383EDA182E08DA3A9
:1028400022303105B9F02330310520F42130310533
:1028500029F507C023303105E9F024303105F1F4C2
:1028600015C089A19AA1ABA1BCA1842B952BA62B45
:10287000B72B07C089A19AA1ABA1BCA10196A11D4C
:10288000B11D89A39AA3ABA3BCA308C0E23011F485
:1028900080E03AC049A35AA36BA37CA3E13099F529
:1028A0008091AA068823A9F48E010E5F1F4FC801EC
:1028B0000E9408049E898091AB06891710F49093BA
:1028C000AB0689E0989FC00111248754994FB80145
:1028D00005C0BE01645F7F4F83EF96E00E94B7039F
:1028E000E091A806F091A9069E898689891758F477
:1028F000E114F10421F081E0F701808305C081E05B
:102900008093AC0601C081E0DF91CF911F910F91C0
:10291000FF90EF9008950F931F93CF93DF93FC01E7
:10292000706871836083C681D7810E9408048E011C
:102930000E5F1F4FC8010E9408049E898091AB065C
:10294000891710F49093AB0689E0989FC001112479
:102950008754994FB8010E94B703E091A806F091FF
:10296000A9069E898689891718F481E08093AC06B0
:10297000DF91CF911F910F9108950F931F93CF93E4
:10298000DF93DC011596ED91FC911697C681D781F6
:102990008E01045F1F4FC8010E9408048091AA069F
:1029A0008823A1F48E010E5F1F4FC8010E94080406
:1029B0009E898091AB06891710F49093AB0689E04D
:1029C000989FC00111248754994F02C083EF96E06D
:1029D000B8010E94B703E091A806F091A9069E896C
:1029E0008689891710F080E003C081E08093AC06EF
:1029F000DF91CF911F910F910895CF92DF92EF92C7
:102A0000FF920F931F93CF93DF938091AA068823A1
:102A100009F0A1C00091AD061091AE060F5F1F4FE7
:102A20001093AE060093AD060115110579F52091BE
:102A3000EF063091F0068091F1069091F2069093A6
:102A4000F0068093EF063093F2062093F106809112
:102A5000B1068F5F8093B106E091EF06F091F0062A
:102A60008081882319F48FEF9FEF0CC0E091EF066F
:102A7000F091F0060580F681E02D0680F781E02DCB
:102A8000828193819093B0068093AF068091AF06C8
:102A90009091B0060817190708F44BC0DD2499E09F
:102AA000C92EE091EF06F091F0068081882319F499
:102AB0008FEF9FEF0EC0E091EF06F091F0060580DA
:102AC000F681E02DC681D7818A819B81081719077D
:102AD00028F49093B0068093AF062CC082E0E82ED5
:102AE000F12CEC0EFD1EC7010E9408048C899D8903
:102AF000892B21F0CE010C960E9408049E898091BA
:102B0000AB06891710F49093AB069C9DC00111246D
:102B10008754994FB7010E94B703E091A806F0913E
:102B2000A9069E898689981708F4BBCFDD24D39423
:102B3000B8CFDD24E091A806F091A906E68989E0E6
:102B4000E89FF0011124E754F94F8081823048F06A
:102B5000DD24D39406C08091B2068F5F8093B206C5
:102B6000DD248091AC06882311F0DD24D3948D2DD3
:102B7000DF91CF911F910F91FF90EF90DF90CF9059
:102B800008950F931F93CF93DF93F801EC010FB6D5
:102B9000F8940F920115110541F089A19AA1ABA1FA
:102BA000BCA180839183A283B383EDA182E08DA336
:102BB00022303105B9F02330310520F421303105C0
:102BC00029F507C023303105E9F024303105F1F44F
:102BD00015C089A19AA1ABA1BCA1842B952BA62BD2
:102BE000B72B07C089A19AA1ABA1BCA10196A11DD9
:102BF000B11D89A39AA3ABA3BCA308C0E23011F412
:102C000080E027C049A35AA36BA37CA3E13001F560
:102C10008E010E5F1F4FC8010E9408049E8980919B
:102C2000AB06891710F49093AB0689E0989FC0011A
:102C300011248754994FB8010E94B703E091A80668
:102C4000F091A9069E898689891710F40E94AE0822
:102C500081E00F900FBEDF91CF911F910F910895EA
:102C6000EF92FF920F931F93CF93DF930FB6F894D9
:102C70000F928091AA0681508093AA068091AA069D
:102C8000882309F06CC08091B306882309F467C0DB
:102C9000C0E0D0E029E0E22EFF24F39429C0E091C7
:102CA000F806F091F906C681D781CE010C960E94F4
:102CB00008048E010E5F1F4FC8010E9408049E8900
:102CC0008091AB06891710F49093AB069E9DC001CE
:102CD00011248754994FB8010E94B703E091A806C8
:102CE000F091A9069E898689981710F0F092AC069B
:102CF0008091F306882399F6CD2BD1F0E091EF0671
:102D0000F091F0068081882319F48FEF9FEF0CC0BB
:102D1000E091EF06F091F0060580F681E02D068047
:102D2000F781E02D828193819093B0068093AF0666
:102D30001091B206112359F001E00E94FD1488237E
:102D400011F00093AC061150C1F71092B2068091B9
:102D5000AC06882321F00E94AE0881E001C080E02B
:102D60000F900FBEDF91CF911F910F91FF90EF90C9
:102D700008950F931F93CF93DF93EC010091AD065D
:102D80001091AE068091A8069091A90602960E9425
:102D90000804C00FD11FE091A806F091A906D383C3
:102DA000C283C017D10768F48091F1069091F206B2
:102DB0006091A8067091A9066E5F7F4F0E94D603AE
:102DC00017C08091EF069091F0066091A80670916F
:102DD000A9066E5F7F4F0E94D6038091AF06909147
:102DE000B006C817D90720F4D093B006C093AF0639
:102DF000DF91CF911F910F9108956F927F928F92E3
:102E00009F92AF92BF92CF92DF92EF92FF920F9379
:102E10001F93CF93DF935B016C0139014A01E801F5
:102E20000FB6F8940F92E091A806F091A90685A13B
:102E3000823019F1E091A806F091A90681A192A132
:102E4000A3A1B4A1A094B094C094D0948A219B2152
:102E5000AC21BD2181A392A3A3A3B4A3E091A806B2
:102E6000F091A90681E085A3E114F10431F0C701D6
:102E700061E00E94B9160E94AE080F900FBE0FB617
:102E8000F8940F92209761F0E091A806F091A906BE
:102E900081A192A1A3A1B4A188839983AA83BB83B2
:102EA000E091A806F091A90685A1823011F080E09A
:102EB00015C0E091A806F091A90681A192A1A3A155
:102EC000B4A1609470948094909486219721A82155
:102ED000B92181A392A3A3A3B4A381E0E091A806A2
:102EE000F091A90615A20F900FBEDF91CF911F910F
:102EF0000F91FF90EF90DF90CF90BF90AF909F9099
:102F00008F907F906F9008951F93182F0FB6F894AD
:102F10000F92E091A806F091A90681A192A1A3A128
:102F2000B4A10097A105B10579F4E091A806F0914C
:102F3000A90681E085A36115710531F0CB0161E03F
:102F40000E94B9160E94AE080F900FBE0FB6F894FB
:102F50000F92E091A806F091A90621A132A143A108
:102F600054A12115310541055105D9F0112349F02E
:102F7000E091A806F091A90611A212A213A214A230
:102F800010C0E091A806F091A906215030404040C1
:102F9000504021A332A343A354A32F5F3F4F4F4F71
:102FA0005F4FE091A806F091A90615A20F900FBE01
:102FB000B901CA011F9108950F931F938A01E091EF
:102FC000A806F091A9067068758764876091A806C5
:102FD0007091A906645F7F4F0E94B703C80161E04A
:102FE0000E94B9161F910F9108959C01009769F0F6
:102FF0008091AA068F5F8093AA06C90160E00E94B3
:10300000B9160E943016882311F40E94AE08089564
:10301000FC018091AA068F5F8093AA064091AD06BD
:103020005091AE0620813181620F731F4217530702
:1030300028F46217730728F080E008C0621773074E
:1030400020F080E04617570708F481E07183608321
:10305000882331F0CB01841B950B60E00E94B916E8
:103060000E943016882311F40E94AE0808950F9331
:103070001F938B016091A8067091A906645F7F4F32
:103080000E94D603C80161E00E94B9161F910F91FA
:103090000895F8941092B4060E944D0808950F9375
:1030A0001F9321C00FB6F8940F92E0910107F091A1
:1030B000020706811781C80102960E9408048091C8
:1030C000B30681508093B3068091B70681508093F8
:1030D000B7060F900FBEF8018789908D0E940709EF
:1030E000C8010E9407098091B7068823D9F680910C
:1030F000B9068230C0F30E94AE08F5CF0F931F933C
:10310000CF93DF930FB6F8940F92009729F4C091F4
:10311000A806D091A90601C0EC018E010E5F1F4FD9
:10312000C8010E9408048C899D89892B21F0CE0159
:103130000C960E9408048091B8068F5F8093B806B1
:103140008091A8069091A906C817D90759F48CEF69
:1031500096E0B8010E94B7038091B7068F5F809315
:10316000B70626C08091B30681508093B3068F893D
:10317000988D0E940709CE010E940709E091EF0691
:10318000F091F0068081882319F48FEF9FEF0CC037
:10319000E091EF06F091F0060580F681E02D0680C3
:1031A000F781E02D828193819093B0068093AF06E2
:1031B0000F900FBE8091B406882349F08091A80635
:1031C0009091A906C817D90711F40E94AE08DF91A3
:1031D000CF911F910F9108954F925F926F927F92BE
:1031E0008F929F92AF92BF92CF92DF92EF92FF9217
:1031F0000F931F93CF93DF932C01162F972E6A0105
:1032000039015701CA010E9417097C01009799F002
:1032100086E290E00E941709EC01009749F0F88ED1
:10322000EF8A812F992D9C01F901DE0190E005C004
:10323000C7010E9407098FEFB7C0808159968C9310
:1032400059978081882329F09F5F31961196983095
:10325000A1F718A2043008F003E00E8B42E0842EA0
:10326000912C8C0E9D1EC4010E94B303CE010C96BE
:103270000E94B303D987C88784E090E0801B91093E
:103280009D878C87DB8BCA8B19A21AA21BA21CA25A
:103290001DA20894C108D108C7018C0D9D1DB20163
:1032A000A3010E94CD0799838883A114B10419F06A
:1032B000F501D183C0830FB6F8940F928091B306C5
:1032C0008F5F8093B3068091A8069091A906892B01
:1032D000A9F5D093A906C093A8068091B3068130C2
:1032E000E9F589EB96E00E94A30382EC96E00E9448
:1032F000A3038BEC96E00E94A30384ED96E00E946A
:10330000A3033DEDE32E36E0F32EC7010E94A30395
:1033100006EE16E0C8010E94A30383EF96E00E9428
:10332000A3038CEF96E00E94A303F092F006E092D4
:10333000EF061093F2060093F10610C08091B406D8
:10334000882361F4E091A806F091A90696898E89F8
:10335000891720F0D093A906C093A8068091B806DB
:103360008F5F8093B8069E898091AB06891710F411
:103370009093AB0689E0989FC00111248754994F20
:10338000B4010E94B7030F900FBE8091B40688234A
:1033900051F0E091A806F091A90696898E899817B8
:1033A00010F40E94AE0881E0DF91CF911F910F9140
:1033B000FF90EF90DF90CF90BF90AF909F908F9055
:1033C0007F906F905F904F900895EF92FF920F93D0
:1033D0008FE498E166E571E045E550E020E030E0FB
:1033E00000E0E5EBEE2EE6E0FE2E0E94EC188130C8
:1033F00081F4F8948FEF9FEF9093B0068093AF061F
:1034000081E08093B4061092AE061092AD060E9441
:1034100015080F91FF90EF900895EF92FF920F9390
:103420001F937B018C0120E030E040E05FE40E94CC
:10343000B91D88238CF0C801B70120E030E040E0DE
:103440005FE40E94851B0E94771E9B01AC01205007
:1034500030404040504806C0C801B7010E94771E66
:103460009B01AC01B901CA011F910F91FF90EF9030
:103470000895A0E0B0E0EFE3FAE10C942421DC0130
:103480002B01FA019C91923008F439C1EB0188813B
:10349000823008F433C1943069F4843009F02FC1CC
:1034A00011969C9111978981981709F428C1ABE571
:1034B000B1E025C1843009F421C18230A9F49230F1
:1034C00009F01DC19A01AD0188E0EA010990AE0141
:1034D000E90109929E018150C1F7E20189811196AB
:1034E0009C918923818308C1923009F407C1129607
:1034F0002D903C901397EB018A819B811496AD909F
:10350000BD90CD90DC901797EC80FD800E811F81DF
:103510009101281B390BB90137FF04C066277727B3
:10352000621B730B603271050CF061C0121613063A
:103530006CF537014801062E04C096948794779461
:1035400067940A94D2F721E030E040E050E004C0F4
:10355000220F331F441F551F6A95D2F72150304068
:10356000404050402E213F21402351232115310559
:103570004105510521F021E030E040E050E07901C3
:103580008A01E628F728082919293CC0232BD1F104
:10359000260E371E35014601062E04C096948794E8
:1035A000779467940A94D2F721E030E040E050E04D
:1035B00004C0220F331F441F551F6A95D2F72150B4
:1035C0003040404050402A213B214C215D212115B3
:1035D00031054105510521F021E030E040E050E0A7
:1035E00059016A01A628B728C828D9280BC0821516
:1035F00093052CF01C01AA24BB24650103C0EE2412
:10360000FF24870111969C91D20111968C919817F5
:1036100009F445C0992339F0A80197012A193B09FB
:103620004C095D0906C0A60195012E193F09400B02
:10363000510B57FD08C011823382228224833583C7
:10364000468357831DC081E081833382228288278D
:103650009927DC01821B930BA40BB50B8483958304
:10366000A683B7830DC0220F331F441F551F248329
:103670003583468357838281938101979383828325
:103680002481358146815781DA01C9010197A10959
:10369000B1098F5F9F4FAF4FBF4328F30BC091839A
:1036A00033822282EA0CFB1C0C1D1D1DE482F58274
:1036B0000683178383E08083248135814681578187
:1036C00057FF1AC0C901AA2797FDA095BA2F81708C
:1036D0009070A070B0705695479537952795822BBE
:1036E000932BA42BB52B84839583A683B7838281E8
:1036F0009381019693838283DF0101C0D201CD01C2
:10370000CDB7DEB7E2E10C944021A0E2B0E0EBE8F7
:10371000FBE10C94302169837A838B839C832D8316
:103720003E834F835887E9E0EE2EF12CEC0EFD1E10
:10373000CE010196B7010E94EF1F8E010F5E1F4F51
:10374000CE010596B8010E94EF1F8A8991E0892772
:103750008A8BC701B801AE01475E5F4F0E94391ADC
:103760000E941A1FA096E6E00C944C21A0E2B0E063
:10377000ECEBFBE10C94302169837A838B839C838F
:103780002D833E834F835887F9E0EF2EF12CEC0E0A
:10379000FD1ECE010196B7010E94EF1F8E010F5E44
:1037A0001F4FCE010596B8010E94EF1FC701B80157
:1037B000AE01475E5F4F0E94391A0E941A1FA09601
:1037C000E6E00C944C21A0E2B0E0E9EEFBE10C94C1
:1037D000242169837A838B839C832D833E834F834B
:1037E0005887CE010196BE01675F7F4F0E94EF1F91
:1037F000CE010596BE016F5E7F4F0E94EF1F998537
:10380000923088F089898230C8F0943019F482307F
:1038100051F404C0843029F4923081F48BE591E0B6
:10382000C6C0923049F420E09A858A89981321E035
:103830002A87CE010996BBC0823049F420E09A85E0
:103840008A89981321E02A8BCE014196B0C02D843D
:103850003E844F8458886D887E888F88988CEE24AB
:10386000FF248701AA24BB24650140E050E060E00A
:1038700070E0E0E0F0E0C10181709070892BE9F028
:10388000E60CF71C081D191D9A01AB012A0D3B1D02
:103890004C1D5D1D80E090E0A0E0B0E0E614F70470
:1038A0000805190520F481E090E0A0E0B0E0BA013D
:1038B000A901480F591F6A1F7B1FAA0CBB1CCC1CF7
:1038C000DD1C97FE08C081E090E0A0E0B0E0A82AEF
:1038D000B92ACA2ADB2A3196E032F10549F0660C92
:1038E000771C881C991C5694479437942794C3CF0F
:1038F000FA85EA892B893C898B859C85280F391F9D
:103900002E5F3F4F17C0CA0181709070892B61F004
:1039100016950795F794E79480E090E0A0E0B0E872
:10392000E82AF92A0A2B1B2B769567955795479518
:103930002F5F3F4F77FDE7CF0CC0440F551F661F29
:10394000771F17FD4160EE0CFF1C001F111F215057
:103950003040403090E0590790E0690790E47907E3
:1039600060F32B8F3C8FDB01CA018F779070A070C2
:10397000B07080349105A105B10561F447FD0AC01E
:10398000E114F1040105110529F0405C5F4F6F4F10
:103990007F4F40781A8EFE1711F081E08A8F4D8F8D
:1039A0005E8F6F8F78A383E0898FCE0149960E9446
:1039B0001A1FA096E2E10C944021A8E1B0E0E3EEEA
:1039C000FCE10C942C2169837A838B839C832D8367
:1039D0003E834F835887B9E0EB2EF12CEC0EFD1E91
:1039E000CE010196B7010E94EF1F8E010F5E1F4F9F
:1039F000CE010596B8010E94EF1F2985223008F4F8
:103A00007EC03989323010F4B8017CC08A859A8929
:103A100089278A87243011F0223031F4231709F0E6
:103A20006EC06BE571E06EC0343039F41D861E86C1
:103A30001F86188A1C861B8604C0323021F484E05D
:103A40008987B7015FC02B853C858B899C89281BA2
:103A5000390B3C872B87ED84FE840F851889AD8850
:103A6000BE88CF88D88CEA14FB040C051D0540F4F1
:103A7000EE0CFF1C001F111F215030403C872B878C
:103A800020E030E040E050E080E090E0A0E0B0E4F2
:103A900060E070E0EA14FB040C051D0540F0282BE3
:103AA000392B4A2B5B2BEA18FB080C091D09B6952C
:103AB000A79597958795EE0CFF1C001F111F6F5F50
:103AC0007F4F6F31710531F7DA01C9018F7790703F
:103AD000A070B07080349105A105B10561F427FD97
:103AE0000AC0E114F1040105110529F0205C3F4FE3
:103AF0004F4F5F4F20782D873E874F87588BBE01F1
:103B0000675F7F4FCB010E941A1F6896EAE00C9412
:103B10004821A8E1B0E0EFE8FDE10C943021698391
:103B20007A838B839C832D833E834F83588789E0E0
:103B3000E82EF12CEC0EFD1ECE010196B7010E947D
:103B4000EF1F8E010F5E1F4FCE010596B8010E9438
:103B5000EF1F8985823040F08989823028F0C701C3
:103B6000B8010E94672001C08FEF6896E6E00C94D0
:103B70004C21A8E1B0E0EFEBFDE10C94302169832A
:103B80007A838B839C832D833E834F83588789E080
:103B9000E82EF12CEC0EFD1ECE010196B7010E941D
:103BA000EF1F8E010F5E1F4FCE010596B8010E94D8
:103BB000EF1F8985823040F08989823028F0C70163
:103BC000B8010E94672001C08FEF6896E6E00C9470
:103BD0004C21A8E1B0E0EFEEFDE10C9430216983C7
:103BE0007A838B839C832D833E834F83588789E020
:103BF000E82EF12CEC0EFD1ECE010196B7010E94BD
:103C0000EF1F8E010F5E1F4FCE010596B8010E9477
:103C1000EF1F8985823040F08989823028F0C70102
:103C2000B8010E94672001C081E06896E6E00C942C
:103C30004C21A8E0B0E0EFE1FEE10C942D219B01C6
:103C4000AC0183E08983DA01C9018827B7FD839538
:103C50009927AA27BB27B82E211531054105510503
:103C600019F482E089833AC08823A9F0203080E0EB
:103C7000380780E0480780E8580729F460E070E0E2
:103C800080E09FEC30C0EE24FF248701E21AF30AA3
:103C9000040B150B02C079018A018EE1C82ED12CCC
:103CA000DC82CB82ED82FE820F831887C801B701C8
:103CB0000E94CB1E01971816190684F4082E04C022
:103CC000EE0CFF1C001F111F0A94D2F7ED82FE823A
:103CD0000F831887C81AD90ADC82CB82BA82CE0138
:103CE00001960E941A1F2896E9E00C944921ACE045
:103CF000B0E0EDE7FEE10C94342169837A838B8395
:103D00009C83CE010196BE016B5F7F4F0E94EF1F27
:103D10008D81823061F1823050F1843021F48E81C6
:103D2000882351F12EC02F81388537FD20C06E8148
:103D30002F3131051CF06623F9F023C08EE190E0AD
:103D4000821B930B29853A854B855C8504C056956B
:103D50004795379527958A95D2F76623B1F0509508
:103D60004095309521953F4F4F4F5F4F0EC020E05B
:103D700030E040E050E009C02FEF3FEF4FEF5FE74A
:103D800004C020E030E040E050E8B901CA012C96C0
:103D9000E2E00C945021EF92FF920F931F937B016E
:103DA0008C0180E0E81680E0F80681E0080780E0FA
:103DB000180788F48FEFE816F1040105110531F0BA
:103DC00028F088E090E0A0E0B0E017C080E090E04C
:103DD000A0E0B0E012C080E0E81680E0F80680E0E5
:103DE000080781E0180728F088E190E0A0E0B0E043
:103DF00004C080E190E0A0E0B0E020E230E040E0EC
:103E000050E0281B390B4A0B5B0B04C01695079535
:103E1000F794E7948A95D2F7F701ED59FE4F808128
:103E2000281B310941095109C9011F910F91FF90C8
:103E3000EF900895DF92EF92FF920F931F93FC0192
:103E4000E480F58006811781D1808081823048F43A
:103E500080E090E0A0E1B0E0E82AF92A0A2B1B2BD1
:103E6000A5C0843009F49FC0823021F4EE24FF24E1
:103E7000870105C0E114F1040105110519F4E0E022
:103E8000F0E096C0628173819FEF623879070CF091
:103E90005BC022E83FEF261B370B2A3131052CF09F
:103EA00020E030E040E050E02AC0B801A701022E37
:103EB00004C076956795579547950A94D2F781E0A7
:103EC00090E0A0E0B0E004C0880F991FAA1FBB1FBC
:103ED0002A95D2F70197A109B1098E219F21A0232C
:103EE000B1230097A105B10521F081E090E0A0E0A9
:103EF000B0E09A01AB01282B392B4A2B5B2BDA015E
:103F0000C9018F779070A070B07080349105A105C1
:103F1000B10539F427FF09C0205C3F4F4F4F5F4F79
:103F200004C0215C3F4F4F4F5F4FE0E0F0E0203096
:103F3000A0E03A07A0E04A07A0E45A0710F0E1E049
:103F4000F0E079018A0127C06038710564F5FB0152
:103F5000E158FF4FD801C7018F779070A070B07003
:103F600080349105A105B10539F4E7FE0DC080E468
:103F700090E0A0E0B0E004C08FE390E0A0E0B0E00B
:103F8000E80EF91E0A1F1B1F17FF05C0169507959F
:103F9000F794E794319687E016950795F794E794A0
:103FA0008A95D1F705C0EE24FF248701EFEFF0E0FA
:103FB0006E2F679566276795902F9F77D794DD249E
:103FC000D7948E2F8695492F462B582F5D29B70100
:103FD000CA011F910F91FF90EF90DF900895FC01AF
:103FE000DB01408151812281622F6F7770E0221FB7
:103FF0002227221F9381892F880F822B282F30E0C0
:10400000991F9927991F11969C9311972115310596
:10401000A9F5411551056105710511F482E037C01C
:1040200082E89FEF13969C938E9312979A01AB01AF
:1040300067E0220F331F441F551F6A95D1F783E0B5
:104040008C930DC0220F331F441F551F12968D9164
:104050009C911397019713969C938E9312972030FF
:1040600080E0380780E0480780E4580758F314964A
:104070002D933D934D935C93179708952F3F3105F2
:1040800079F4411551056105710519F484E08C93AB
:10409000089564FF03C081E08C9312C01C9210C08D
:1040A0002F57304013963C932E93129783E08C93B6
:1040B00087E0440F551F661F771F8A95D1F77064FC
:1040C00014964D935D936D937C93179708951F936A
:1040D000DC01FB019C91923008F447C08081823062
:1040E00008F443C0943051F411961C91843099F532
:1040F0008181682F70E0611B71093FC0843021F01D
:10410000923031F48230B9F18181882389F12DC058
:1041100011961C9111978230F1F081811817D9F412
:1041200012962D913C911397828193818217930768
:1041300094F028173907BCF014968D919D910D903D
:10414000BC91A02D248135814681578128173907DC
:104150004A075B0718F4112341F00AC0821793073E
:10416000A407B50740F4112319F061E070E005C021
:104170006FEF7FEF02C060E070E0CB011F91089508
:1041800097FB092E07260AD077FD04D027D006D04A
:1041900000201AF4709561957F4F0895F6F7909579
:1041A00081959F4F089597FB092E05260ED057FD48
:1041B00004D028D00AD0001C38F450954095309592
:1041C00021953F4F4F4F5F4F0895F6F7909580959B
:1041D000709561957F4F8F4F9F4F0895AA1BBB1B12
:1041E00051E107C0AA1FBB1FA617B70710F0A61BF7
:1041F000B70B881F991F5A95A9F780959095BC0118
:10420000CD010895A1E21A2EAA1BBB1BFD010DC012
:10421000AA1FBB1FEE1FFF1FA217B307E407F50776
:1042200020F0A21BB30BE40BF50B661F771F881F52
:10423000991F1A9469F760957095809590959B01E8
:10424000AC01BD01CF0108952F923F924F925F9232
:104250006F927F928F929F92AF92BF92CF92DF9296
:10426000EF92FF920F931F93CF93DF93CDB7DEB7FB
:10427000CA1BDB0B0FB6F894DEBF0FBECDBF09948F
:104280002A88398848885F846E847D848C849B84E6
:10429000AA84B984C884DF80EE80FD800C811B81F4
:1042A000AA81B981CE0FD11D0FB6F894DEBF0FBE23
:1042B000CDBFED010895FB01DC0102C001900D921C
:0C42C00041505040D8F70895F894FFCF0B
:1042CC000A73696465720A000A6D617276696E0A16
:1042DC00004100420043003F2028792F4E293A200C
:1042EC00000A416C74000A43616E000A48656C6CEC
:1042FC006F0A4368616E676520666F722000783DB7
:10430C0000793D006B3D006C3D00313D00323D00BD
:10431C00333D00343D0049444C4500000000000092
:10432C00000000000102020303030304040404045C
:10433C000404040505050505050505050505050524
:10434C000505050606060606060606060606060604
:10435C0006060606060606060606060606060606F1
:10436C0006060607070707070707070707070707D4
:10437C0007070707070707070707070707070707C1
:10438C0007070707070707070707070707070707B1
:10439C0007070707070707070707070707070707A1
:1043AC000707070808080808080808080808080884
:1043BC000808080808080808080808080808080871
:1043CC000808080808080808080808080808080861
:1043DC000808080808080808080808080808080851
:1043EC000808080808080808080808080808080841
:1043FC000808080808080808080808080808080831
:10440C000808080808080808080808080808080820
:10441C000808080808080808080808080808080810
:04442C000808080074
:00000001FF
